:20000000800B7590FF75A0FF75B0FF018D7590FF75A0FF75B0FF780079007A007B007C00ED
:200020007D00758901758C4F758AC0D28CD2A9D2AF9080027401F0908004ED11D8F0311742
:200040009080027402F0908004EC11D8F031179080027404F0908004EB11D8F0311790805D
:20006000027408F0908004EA11D8F031179080027410F0908004E911D8F0311790800274C9
:2000800020F0908004E811D8F0311780A4C0E0C0D0E52004B414087400F52011AE8002F547
:2000A00020758C3C758AB0C28DD0D0D0E0320DBD0A257D000CBC061F7C000BBB0A197B0020
:2000C0000ABA06137A0009B80207B9040478007900B90A0379000822B40003743F22B401A3
:2000E00003740622B40203745B22B40303744F22B40403746622B40503746D22B406037471
:200100007D22B40703740722B40803747F22B40903746F227400227E027FFADFFEDEFA22E6
:0101200000DE
:00000001FF
